{
  "contractName": "TodoList",
  "abi": [
    {
      "anonymous": false,
      "inputs": [
        {
          "indexed": false,
          "name": "id",
          "type": "uint256"
        },
        {
          "indexed": false,
          "name": "date",
          "type": "uint256"
        },
        {
          "indexed": false,
          "name": "content",
          "type": "string"
        }
      ],
      "name": "TaskCreated",
      "type": "event"
    },
    {
      "anonymous": false,
      "inputs": [
        {
          "indexed": false,
          "name": "id",
          "type": "uint256"
        },
        {
          "indexed": false,
          "name": "done",
          "type": "bool"
        }
      ],
      "name": "TaskStatusToggled",
      "type": "event"
    },
    {
      "constant": false,
      "inputs": [
        {
          "name": "_content",
          "type": "string"
        }
      ],
      "name": "createTask",
      "outputs": [],
      "payable": false,
      "stateMutability": "nonpayable",
      "type": "function"
    },
    {
      "constant": false,
      "inputs": [
        {
          "name": "id",
          "type": "uint256"
        }
      ],
      "name": "toggleTaskStatus",
      "outputs": [],
      "payable": false,
      "stateMutability": "nonpayable",
      "type": "function"
    },
    {
      "constant": true,
      "inputs": [],
      "name": "getTaskIds",
      "outputs": [
        {
          "name": "",
          "type": "uint256[]"
        }
      ],
      "payable": false,
      "stateMutability": "view",
      "type": "function"
    },
    {
      "constant": true,
      "inputs": [
        {
          "name": "id",
          "type": "uint256"
        }
      ],
      "name": "getTask",
      "outputs": [
        {
          "name": "",
          "type": "uint256"
        },
        {
          "name": "",
          "type": "uint256"
        },
        {
          "name": "",
          "type": "string"
        },
        {
          "name": "",
          "type": "bool"
        }
      ],
      "payable": false,
      "stateMutability": "view",
      "type": "function"
    }
  ],
  "bytecode": "0x608060405234801561001057600080fd5b506106df806100206000396000f300608060405260043610610062576000357c0100000000000000000000000000000000000000000000000000000000900463ffffffff168063111002aa146100675780631d65e77e146100d05780635357316e1461018f578063bcd14805146101bc575b600080fd5b34801561007357600080fd5b506100ce600480360381019080803590602001908201803590602001908080601f0160208091040260200160405190810160405280939291908181526020018383808284378201915050505050509192919290505050610228565b005b3480156100dc57600080fd5b506100fb600480360381019080803590602001909291905050506103a7565b604051808581526020018481526020018060200183151515158152602001828103825284818151815260200191508051906020019080838360005b83811015610151578082015181840152602081019050610136565b50505050905090810190601f16801561017e5780820380516001836020036101000a031916815260200191505b509550505050505060405180910390f35b34801561019b57600080fd5b506101ba600480360381019080803590602001909291905050506104d3565b005b3480156101c857600080fd5b506101d16105b6565b6040518080602001828103825283818151815260200191508051906020019060200280838360005b838110156102145780820151818401526020810190506101f9565b505050509050019250505060405180910390f35b60008081548092919060010191905055506080604051908101604052806000548152602001428152602001828152602001600015158152506002600080548152602001908152602001600020600082015181600001556020820151816001015560408201518160020190805190602001906102a492919061060e565b5060608201518160030160006101000a81548160ff021916908315150217905550905050600160005490806001815401808255809150509060018203906000526020600020016000909192909190915055507faaea5a85c9c3b7b12c48d96193f953955bc3d1b2b0790405eb9b4aa2973a113160005442836040518084815260200183815260200180602001828103825283818151815260200191508051906020019080838360005b8381101561036857808201518184015260208101905061034d565b50505050905090810190601f1680156103955780820380516001836020036101000a031916815260200191505b5094505050505060405180910390a150565b600080606060008460006002600083815260200190815260200160002060000154141515156103d557600080fd5b85600260008881526020019081526020016000206001015460026000898152602001908152602001600020600201600260008a815260200190815260200160002060030160009054906101000a900460ff16818054600181600116156101000203166002900480601f0160208091040260200160405190810160405280929190818152602001828054600181600116156101000203166002900480156104bc5780601f10610491576101008083540402835291602001916104bc565b820191906000526020600020905b81548152906001019060200180831161049f57829003601f168201915b505050505091509450945094509450509193509193565b8060006002600083815260200190815260200160002060000154141515156104fa57600080fd5b6002600083815260200190815260200160002060030160009054906101000a900460ff16156002600084815260200190815260200160002060030160006101000a81548160ff0219169083151502179055507fc63c34089ec3ca7025b2576e9e17e226d1e6c33f64661975d35df1cea0c0a60d826002600085815260200190815260200160002060030160009054906101000a900460ff1660405180838152602001821515151581526020019250505060405180910390a15050565b6060600180548060200260200160405190810160405280929190818152602001828054801561060457602002820191906000526020600020905b8154815260200190600101908083116105f0575b5050505050905090565b828054600181600116156101000203166002900490600052602060002090601f016020900481019282601f1061064f57805160ff191683800117855561067d565b8280016001018555821561067d579182015b8281111561067c578251825591602001919060010190610661565b5b50905061068a919061068e565b5090565b6106b091905b808211156106ac576000816000905550600101610694565b5090565b905600a165627a7a723058204b528243635c1007cd8fead83914a3c27aea4710519f3517e4d0ff8b42da01ff0029",
  "source": "pragma solidity ^0.4.24;\ncontract TodoList {\n  struct Task {\n    uint id;\n    uint date;\n    string content;\n    bool done;\n  }\n\n  uint private lastTaskId;\n  uint[] private taskIds;\n  mapping(uint => Task) private tasks;\n  \n  event TaskCreated(uint id, uint date, string content);\n  event TaskStatusToggled(uint id, bool done);\n\n  function createTask(string _content) public {\n    lastTaskId++;\n    tasks[lastTaskId] = Task(lastTaskId, now, _content, false);\n    taskIds.push(lastTaskId);\n    emit TaskCreated(lastTaskId, now, _content);\n  }\n\n  function toggleTaskStatus(uint id) taskExist(id) public {\n    tasks[id].done = !tasks[id].done;\n    emit TaskStatusToggled(id, tasks[id].done);\n  }\n\n  function getTaskIds() public view returns(uint[]) {\n    return taskIds;\n  }\n\n  function getTask(uint id) taskExist(id) public view returns(uint, uint, string, bool) {\n    return (id, tasks[id].date, tasks[id].content, tasks[id].done);\n  }\n\n  modifier taskExist(uint id) {\n    require (tasks[id].id != 0);\n    _;\n  }\n}",
  "sourcePath": "/Users/admin/Desktop/todolist/ethereum-todolist/contracts/TodoList.sol",
  "compiler": {
    "name": "solc",
    "version": "0.4.24+commit.e67f0147.Emscripten.clang"
  },
  "schemaVersion": "2.0.0",
  "updatedAt": "2018-05-31T08:56:55.851Z"
}